{
  "_format": "hh-sol-artifact-1",
  "contractName": "Post",
  "sourceName": "contracts/Post.sol",
  "abi": [
    {
      "inputs": [],
      "stateMutability": "nonpayable",
      "type": "constructor"
    },
    {
      "anonymous": false,
      "inputs": [
        {
          "indexed": true,
          "internalType": "address",
          "name": "owner",
          "type": "address"
        },
        {
          "indexed": true,
          "internalType": "address",
          "name": "approved",
          "type": "address"
        },
        {
          "indexed": true,
          "internalType": "uint256",
          "name": "tokenId",
          "type": "uint256"
        }
      ],
      "name": "Approval",
      "type": "event"
    },
    {
      "anonymous": false,
      "inputs": [
        {
          "indexed": true,
          "internalType": "address",
          "name": "owner",
          "type": "address"
        },
        {
          "indexed": true,
          "internalType": "address",
          "name": "operator",
          "type": "address"
        },
        {
          "indexed": false,
          "internalType": "bool",
          "name": "approved",
          "type": "bool"
        }
      ],
      "name": "ApprovalForAll",
      "type": "event"
    },
    {
      "anonymous": false,
      "inputs": [
        {
          "indexed": false,
          "internalType": "uint256",
          "name": "_fromTokenId",
          "type": "uint256"
        },
        {
          "indexed": false,
          "internalType": "uint256",
          "name": "_toTokenId",
          "type": "uint256"
        }
      ],
      "name": "BatchMetadataUpdate",
      "type": "event"
    },
    {
      "anonymous": false,
      "inputs": [
        {
          "indexed": false,
          "internalType": "uint256",
          "name": "_tokenId",
          "type": "uint256"
        }
      ],
      "name": "MetadataUpdate",
      "type": "event"
    },
    {
      "anonymous": false,
      "inputs": [
        {
          "indexed": true,
          "internalType": "address",
          "name": "from",
          "type": "address"
        },
        {
          "indexed": true,
          "internalType": "address",
          "name": "to",
          "type": "address"
        },
        {
          "indexed": true,
          "internalType": "uint256",
          "name": "tokenId",
          "type": "uint256"
        }
      ],
      "name": "Transfer",
      "type": "event"
    },
    {
      "anonymous": false,
      "inputs": [
        {
          "indexed": false,
          "internalType": "uint256",
          "name": "",
          "type": "uint256"
        },
        {
          "indexed": false,
          "internalType": "string",
          "name": "",
          "type": "string"
        }
      ],
      "name": "minted",
      "type": "event"
    },
    {
      "inputs": [
        {
          "internalType": "address",
          "name": "to",
          "type": "address"
        },
        {
          "internalType": "uint256",
          "name": "tokenId",
          "type": "uint256"
        }
      ],
      "name": "approve",
      "outputs": [],
      "stateMutability": "nonpayable",
      "type": "function"
    },
    {
      "inputs": [
        {
          "internalType": "address",
          "name": "owner",
          "type": "address"
        }
      ],
      "name": "balanceOf",
      "outputs": [
        {
          "internalType": "uint256",
          "name": "",
          "type": "uint256"
        }
      ],
      "stateMutability": "view",
      "type": "function"
    },
    {
      "inputs": [
        {
          "internalType": "uint256",
          "name": "tokenId",
          "type": "uint256"
        }
      ],
      "name": "getApproved",
      "outputs": [
        {
          "internalType": "address",
          "name": "",
          "type": "address"
        }
      ],
      "stateMutability": "view",
      "type": "function"
    },
    {
      "inputs": [
        {
          "internalType": "address",
          "name": "owner",
          "type": "address"
        },
        {
          "internalType": "address",
          "name": "operator",
          "type": "address"
        }
      ],
      "name": "isApprovedForAll",
      "outputs": [
        {
          "internalType": "bool",
          "name": "",
          "type": "bool"
        }
      ],
      "stateMutability": "view",
      "type": "function"
    },
    {
      "inputs": [
        {
          "internalType": "string",
          "name": "_tokenuri",
          "type": "string"
        },
        {
          "internalType": "uint256",
          "name": "_id",
          "type": "uint256"
        },
        {
          "internalType": "address",
          "name": "to",
          "type": "address"
        }
      ],
      "name": "mint",
      "outputs": [],
      "stateMutability": "nonpayable",
      "type": "function"
    },
    {
      "inputs": [],
      "name": "name",
      "outputs": [
        {
          "internalType": "string",
          "name": "",
          "type": "string"
        }
      ],
      "stateMutability": "view",
      "type": "function"
    },
    {
      "inputs": [
        {
          "internalType": "uint256",
          "name": "tokenId",
          "type": "uint256"
        }
      ],
      "name": "ownerOf",
      "outputs": [
        {
          "internalType": "address",
          "name": "",
          "type": "address"
        }
      ],
      "stateMutability": "view",
      "type": "function"
    },
    {
      "inputs": [
        {
          "internalType": "address",
          "name": "from",
          "type": "address"
        },
        {
          "internalType": "address",
          "name": "to",
          "type": "address"
        },
        {
          "internalType": "uint256",
          "name": "tokenId",
          "type": "uint256"
        }
      ],
      "name": "safeTransferFrom",
      "outputs": [],
      "stateMutability": "nonpayable",
      "type": "function"
    },
    {
      "inputs": [
        {
          "internalType": "address",
          "name": "from",
          "type": "address"
        },
        {
          "internalType": "address",
          "name": "to",
          "type": "address"
        },
        {
          "internalType": "uint256",
          "name": "tokenId",
          "type": "uint256"
        },
        {
          "internalType": "bytes",
          "name": "data",
          "type": "bytes"
        }
      ],
      "name": "safeTransferFrom",
      "outputs": [],
      "stateMutability": "nonpayable",
      "type": "function"
    },
    {
      "inputs": [
        {
          "internalType": "address",
          "name": "operator",
          "type": "address"
        },
        {
          "internalType": "bool",
          "name": "approved",
          "type": "bool"
        }
      ],
      "name": "setApprovalForAll",
      "outputs": [],
      "stateMutability": "nonpayable",
      "type": "function"
    },
    {
      "inputs": [
        {
          "internalType": "string",
          "name": "_tokenuri",
          "type": "string"
        }
      ],
      "name": "settokenuri",
      "outputs": [],
      "stateMutability": "nonpayable",
      "type": "function"
    },
    {
      "inputs": [
        {
          "internalType": "bytes4",
          "name": "interfaceId",
          "type": "bytes4"
        }
      ],
      "name": "supportsInterface",
      "outputs": [
        {
          "internalType": "bool",
          "name": "",
          "type": "bool"
        }
      ],
      "stateMutability": "view",
      "type": "function"
    },
    {
      "inputs": [],
      "name": "symbol",
      "outputs": [
        {
          "internalType": "string",
          "name": "",
          "type": "string"
        }
      ],
      "stateMutability": "view",
      "type": "function"
    },
    {
      "inputs": [
        {
          "internalType": "uint256",
          "name": "_tokenId",
          "type": "uint256"
        }
      ],
      "name": "tokenURI",
      "outputs": [
        {
          "internalType": "string",
          "name": "",
          "type": "string"
        }
      ],
      "stateMutability": "view",
      "type": "function"
    },
    {
      "inputs": [
        {
          "internalType": "address",
          "name": "from",
          "type": "address"
        },
        {
          "internalType": "address",
          "name": "to",
          "type": "address"
        },
        {
          "internalType": "uint256",
          "name": "tokenId",
          "type": "uint256"
        }
      ],
      "name": "transferFrom",
      "outputs": [],
      "stateMutability": "nonpayable",
      "type": "function"
    }
  ],
  "bytecode": "0x60806040523480156200001157600080fd5b506040518060400160405280600881526020017f576562334772616d0000000000000000000000000000000000000000000000008152506040518060400160405280600281526020017f503300000000000000000000000000000000000000000000000000000000000081525081600090816200008f919062000324565b508060019081620000a1919062000324565b5050506200040b565b600081519050919050565b7f4e487b7100000000000000000000000000000000000000000000000000000000600052604160045260246000fd5b7f4e487b7100000000000000000000000000000000000000000000000000000000600052602260045260246000fd5b600060028204905060018216806200012c57607f821691505b602082108103620001425762000141620000e4565b5b50919050565b60008190508160005260206000209050919050565b60006020601f8301049050919050565b600082821b905092915050565b600060088302620001ac7fffffffffffffffffffffffffffffffffffffffffffffffffffffffffffffffff826200016d565b620001b886836200016d565b95508019841693508086168417925050509392505050565b6000819050919050565b6000819050919050565b600062000205620001ff620001f984620001d0565b620001da565b620001d0565b9050919050565b6000819050919050565b6200022183620001e4565b6200023962000230826200020c565b8484546200017a565b825550505050565b600090565b6200025062000241565b6200025d81848462000216565b505050565b5b8181101562000285576200027960008262000246565b60018101905062000263565b5050565b601f821115620002d4576200029e8162000148565b620002a9846200015d565b81016020851015620002b9578190505b620002d1620002c8856200015d565b83018262000262565b50505b505050565b600082821c905092915050565b6000620002f960001984600802620002d9565b1980831691505092915050565b6000620003148383620002e6565b9150826002028217905092915050565b6200032f82620000aa565b67ffffffffffffffff8111156200034b576200034a620000b5565b5b62000357825462000113565b6200036482828562000289565b600060209050601f8311600181146200039c576000841562000387578287015190505b62000393858262000306565b86555062000403565b601f198416620003ac8662000148565b60005b82811015620003d657848901518255600182019150602085019450602081019050620003af565b86831015620003f65784890151620003f2601f891682620002e6565b8355505b6001600288020188555050505b505050505050565b612739806200041b6000396000f3fe608060405234801561001057600080fd5b50600436106100f55760003560e01c806370a0823111610097578063a22cb46511610066578063a22cb46514610282578063b88d4fde1461029e578063c87b56dd146102ba578063e985e9c5146102ea576100f5565b806370a08231146101fc5780637af1388c1461022c57806395d89b4114610248578063a1cb7d3a14610266576100f5565b8063095ea7b3116100d3578063095ea7b31461017857806323b872dd1461019457806342842e0e146101b05780636352211e146101cc576100f5565b806301ffc9a7146100fa57806306fdde031461012a578063081812fc14610148575b600080fd5b610114600480360381019061010f91906116bd565b61031a565b6040516101219190611705565b60405180910390f35b61013261037b565b60405161013f91906117b0565b60405180910390f35b610162600480360381019061015d9190611808565b61040d565b60405161016f9190611876565b60405180910390f35b610192600480360381019061018d91906118bd565b610453565b005b6101ae60048036038101906101a991906118fd565b61056a565b005b6101ca60048036038101906101c591906118fd565b6105ca565b005b6101e660048036038101906101e19190611808565b6105ea565b6040516101f39190611876565b60405180910390f35b61021660048036038101906102119190611950565b610670565b604051610223919061198c565b60405180910390f35b61024660048036038101906102419190611adc565b610727565b005b610250610782565b60405161025d91906117b0565b60405180910390f35b610280600480360381019061027b9190611b4b565b610814565b005b61029c60048036038101906102979190611bc0565b610827565b005b6102b860048036038101906102b39190611ca1565b61083d565b005b6102d460048036038101906102cf9190611808565b61089f565b6040516102e191906117b0565b60405180910390f35b61030460048036038101906102ff9190611d24565b610945565b6040516103119190611705565b60405180910390f35b6000634906490660e01b7bffffffffffffffffffffffffffffffffffffffffffffffffffffffff1916827bffffffffffffffffffffffffffffffffffffffffffffffffffffffff191614806103745750610373826109d9565b5b9050919050565b60606000805461038a90611d93565b80601f01602080910402602001604051908101604052809291908181526020018280546103b690611d93565b80156104035780601f106103d857610100808354040283529160200191610403565b820191906000526020600020905b8154815290600101906020018083116103e657829003601f168201915b5050505050905090565b600061041882610abb565b6004600083815260200190815260200160002060009054906101000a900473ffffffffffffffffffffffffffffffffffffffff169050919050565b600061045e826105ea565b90508073ffffffffffffffffffffffffffffffffffffffff168373ffffffffffffffffffffffffffffffffffffffff16036104ce576040517f08c379a00000000000000000000000000000000000000000000000000000000081526004016104c590611e36565b60405180910390fd5b8073ffffffffffffffffffffffffffffffffffffffff166104ed610b06565b73ffffffffffffffffffffffffffffffffffffffff16148061051c575061051b81610516610b06565b610945565b5b61055b576040517f08c379a000000000000000000000000000000000000000000000000000000000815260040161055290611ec8565b60405180910390fd5b6105658383610b0e565b505050565b61057b610575610b06565b82610bc7565b6105ba576040517f08c379a00000000000000000000000000000000000000000000000000000000081526004016105b190611f5a565b60405180910390fd5b6105c5838383610c5c565b505050565b6105e58383836040518060200160405280600081525061083d565b505050565b6000806105f683610f55565b9050600073ffffffffffffffffffffffffffffffffffffffff168173ffffffffffffffffffffffffffffffffffffffff1603610667576040517f08c379a000000000000000000000000000000000000000000000000000000000815260040161065e90611fc6565b60405180910390fd5b80915050919050565b60008073ffffffffffffffffffffffffffffffffffffffff168273ffffffffffffffffffffffffffffffffffffffff16036106e0576040517f08c379a00000000000000000000000000000000000000000000000000000000081526004016106d790612058565b60405180910390fd5b600360008373ffffffffffffffffffffffffffffffffffffffff1673ffffffffffffffffffffffffffffffffffffffff168152602001908152602001600020549050919050565b6107318183610f92565b61073a83610814565b6107438261089f565b507faf2e757b9971840eeffcbdff2672715b03bd62e156cbf50a5dad76aa484cdc1c8284604051610775929190612078565b60405180910390a1505050565b60606001805461079190611d93565b80601f01602080910402602001604051908101604052809291908181526020018280546107bd90611d93565b801561080a5780601f106107df5761010080835404028352916020019161080a565b820191906000526020600020905b8154815290600101906020018083116107ed57829003601f168201915b5050505050905090565b80600790816108239190612254565b5050565b610839610832610b06565b8383610fb0565b5050565b61084e610848610b06565b83610bc7565b61088d576040517f08c379a000000000000000000000000000000000000000000000000000000000815260040161088490611f5a565b60405180910390fd5b6108998484848461111c565b50505050565b60606108aa82611178565b6108b357600080fd5b600780546108c090611d93565b80601f01602080910402602001604051908101604052809291908181526020018280546108ec90611d93565b80156109395780601f1061090e57610100808354040283529160200191610939565b820191906000526020600020905b81548152906001019060200180831161091c57829003601f168201915b50505050509050919050565b6000600560008473ffffffffffffffffffffffffffffffffffffffff1673ffffffffffffffffffffffffffffffffffffffff16815260200190815260200160002060008373ffffffffffffffffffffffffffffffffffffffff1673ffffffffffffffffffffffffffffffffffffffff16815260200190815260200160002060009054906101000a900460ff16905092915050565b60007f80ac58cd000000000000000000000000000000000000000000000000000000007bffffffffffffffffffffffffffffffffffffffffffffffffffffffff1916827bffffffffffffffffffffffffffffffffffffffffffffffffffffffff19161480610aa457507f5b5e139f000000000000000000000000000000000000000000000000000000007bffffffffffffffffffffffffffffffffffffffffffffffffffffffff1916827bffffffffffffffffffffffffffffffffffffffffffffffffffffffff1916145b80610ab45750610ab3826111b9565b5b9050919050565b610ac481611178565b610b03576040517f08c379a0000000000000000000000000000000000000000000000000000000008152600401610afa90611fc6565b60405180910390fd5b50565b600033905090565b816004600083815260200190815260200160002060006101000a81548173ffffffffffffffffffffffffffffffffffffffff021916908373ffffffffffffffffffffffffffffffffffffffff160217905550808273ffffffffffffffffffffffffffffffffffffffff16610b81836105ea565b73ffffffffffffffffffffffffffffffffffffffff167f8c5be1e5ebec7d5bd14f71427d1e84f3dd0314c0f7b2291e5b200ac8c7c3b92560405160405180910390a45050565b600080610bd3836105ea565b90508073ffffffffffffffffffffffffffffffffffffffff168473ffffffffffffffffffffffffffffffffffffffff161480610c155750610c148185610945565b5b80610c5357508373ffffffffffffffffffffffffffffffffffffffff16610c3b8461040d565b73ffffffffffffffffffffffffffffffffffffffff16145b91505092915050565b8273ffffffffffffffffffffffffffffffffffffffff16610c7c826105ea565b73ffffffffffffffffffffffffffffffffffffffff1614610cd2576040517f08c379a0000000000000000000000000000000000000000000000000000000008152600401610cc990612398565b60405180910390fd5b600073ffffffffffffffffffffffffffffffffffffffff168273ffffffffffffffffffffffffffffffffffffffff1603610d41576040517f08c379a0000000000000000000000000000000000000000000000000000000008152600401610d389061242a565b60405180910390fd5b610d4e8383836001611223565b8273ffffffffffffffffffffffffffffffffffffffff16610d6e826105ea565b73ffffffffffffffffffffffffffffffffffffffff1614610dc4576040517f08c379a0000000000000000000000000000000000000000000000000000000008152600401610dbb90612398565b60405180910390fd5b6004600082815260200190815260200160002060006101000a81549073ffffffffffffffffffffffffffffffffffffffff02191690556001600360008573ffffffffffffffffffffffffffffffffffffffff1673ffffffffffffffffffffffffffffffffffffffff168152602001908152602001600020600082825403925050819055506001600360008473ffffffffffffffffffffffffffffffffffffffff1673ffffffffffffffffffffffffffffffffffffffff16815260200190815260200160002060008282540192505081905550816002600083815260200190815260200160002060006101000a81548173ffffffffffffffffffffffffffffffffffffffff021916908373ffffffffffffffffffffffffffffffffffffffff160217905550808273ffffffffffffffffffffffffffffffffffffffff168473ffffffffffffffffffffffffffffffffffffffff167fddf252ad1be2c89b69c2b068fc378daa952ba7f163c4a11628f55a4df523b3ef60405160405180910390a4610f508383836001611229565b505050565b60006002600083815260200190815260200160002060009054906101000a900473ffffffffffffffffffffffffffffffffffffffff169050919050565b610fac82826040518060200160405280600081525061122f565b5050565b8173ffffffffffffffffffffffffffffffffffffffff168373ffffffffffffffffffffffffffffffffffffffff160361101e576040517f08c379a000000000000000000000000000000000000000000000000000000000815260040161101590612496565b60405180910390fd5b80600560008573ffffffffffffffffffffffffffffffffffffffff1673ffffffffffffffffffffffffffffffffffffffff16815260200190815260200160002060008473ffffffffffffffffffffffffffffffffffffffff1673ffffffffffffffffffffffffffffffffffffffff16815260200190815260200160002060006101000a81548160ff0219169083151502179055508173ffffffffffffffffffffffffffffffffffffffff168373ffffffffffffffffffffffffffffffffffffffff167f17307eab39ab6107e8899845ad3d59bd9653f200f220920489ca2b5937696c318360405161110f9190611705565b60405180910390a3505050565b611127848484610c5c565b6111338484848461128a565b611172576040517f08c379a000000000000000000000000000000000000000000000000000000000815260040161116990612528565b60405180910390fd5b50505050565b60008073ffffffffffffffffffffffffffffffffffffffff1661119a83610f55565b73ffffffffffffffffffffffffffffffffffffffff1614159050919050565b60007f01ffc9a7000000000000000000000000000000000000000000000000000000007bffffffffffffffffffffffffffffffffffffffffffffffffffffffff1916827bffffffffffffffffffffffffffffffffffffffffffffffffffffffff1916149050919050565b50505050565b50505050565b6112398383611411565b611246600084848461128a565b611285576040517f08c379a000000000000000000000000000000000000000000000000000000000815260040161127c90612528565b60405180910390fd5b505050565b60006112ab8473ffffffffffffffffffffffffffffffffffffffff1661162e565b15611404578373ffffffffffffffffffffffffffffffffffffffff1663150b7a026112d4610b06565b8786866040518563ffffffff1660e01b81526004016112f6949392919061259d565b6020604051808303816000875af192505050801561133257506040513d601f19601f8201168201806040525081019061132f91906125fe565b60015b6113b4573d8060008114611362576040519150601f19603f3d011682016040523d82523d6000602084013e611367565b606091505b5060008151036113ac576040517f08c379a00000000000000000000000000000000000000000000000000000000081526004016113a390612528565b60405180910390fd5b805181602001fd5b63150b7a0260e01b7bffffffffffffffffffffffffffffffffffffffffffffffffffffffff1916817bffffffffffffffffffffffffffffffffffffffffffffffffffffffff191614915050611409565b600190505b949350505050565b600073ffffffffffffffffffffffffffffffffffffffff168273ffffffffffffffffffffffffffffffffffffffff1603611480576040517f08c379a000000000000000000000000000000000000000000000000000000000815260040161147790612677565b60405180910390fd5b61148981611178565b156114c9576040517f08c379a00000000000000000000000000000000000000000000000000000000081526004016114c0906126e3565b60405180910390fd5b6114d7600083836001611223565b6114e081611178565b15611520576040517f08c379a0000000000000000000000000000000000000000000000000000000008152600401611517906126e3565b60405180910390fd5b6001600360008473ffffffffffffffffffffffffffffffffffffffff1673ffffffffffffffffffffffffffffffffffffffff16815260200190815260200160002060008282540192505081905550816002600083815260200190815260200160002060006101000a81548173ffffffffffffffffffffffffffffffffffffffff021916908373ffffffffffffffffffffffffffffffffffffffff160217905550808273ffffffffffffffffffffffffffffffffffffffff16600073ffffffffffffffffffffffffffffffffffffffff167fddf252ad1be2c89b69c2b068fc378daa952ba7f163c4a11628f55a4df523b3ef60405160405180910390a461162a600083836001611229565b5050565b6000808273ffffffffffffffffffffffffffffffffffffffff163b119050919050565b6000604051905090565b600080fd5b600080fd5b60007fffffffff0000000000000000000000000000000000000000000000000000000082169050919050565b61169a81611665565b81146116a557600080fd5b50565b6000813590506116b781611691565b92915050565b6000602082840312156116d3576116d261165b565b5b60006116e1848285016116a8565b91505092915050565b60008115159050919050565b6116ff816116ea565b82525050565b600060208201905061171a60008301846116f6565b92915050565b600081519050919050565b600082825260208201905092915050565b60005b8381101561175a57808201518184015260208101905061173f565b60008484015250505050565b6000601f19601f8301169050919050565b600061178282611720565b61178c818561172b565b935061179c81856020860161173c565b6117a581611766565b840191505092915050565b600060208201905081810360008301526117ca8184611777565b905092915050565b6000819050919050565b6117e5816117d2565b81146117f057600080fd5b50565b600081359050611802816117dc565b92915050565b60006020828403121561181e5761181d61165b565b5b600061182c848285016117f3565b91505092915050565b600073ffffffffffffffffffffffffffffffffffffffff82169050919050565b600061186082611835565b9050919050565b61187081611855565b82525050565b600060208201905061188b6000830184611867565b92915050565b61189a81611855565b81146118a557600080fd5b50565b6000813590506118b781611891565b92915050565b600080604083850312156118d4576118d361165b565b5b60006118e2858286016118a8565b92505060206118f3858286016117f3565b9150509250929050565b6000806000606084860312156119165761191561165b565b5b6000611924868287016118a8565b9350506020611935868287016118a8565b9250506040611946868287016117f3565b9150509250925092565b6000602082840312156119665761196561165b565b5b6000611974848285016118a8565b91505092915050565b611986816117d2565b82525050565b60006020820190506119a1600083018461197d565b92915050565b600080fd5b600080fd5b7f4e487b7100000000000000000000000000000000000000000000000000000000600052604160045260246000fd5b6119e982611766565b810181811067ffffffffffffffff82111715611a0857611a076119b1565b5b80604052505050565b6000611a1b611651565b9050611a2782826119e0565b919050565b600067ffffffffffffffff821115611a4757611a466119b1565b5b611a5082611766565b9050602081019050919050565b82818337600083830152505050565b6000611a7f611a7a84611a2c565b611a11565b905082815260208101848484011115611a9b57611a9a6119ac565b5b611aa6848285611a5d565b509392505050565b600082601f830112611ac357611ac26119a7565b5b8135611ad3848260208601611a6c565b91505092915050565b600080600060608486031215611af557611af461165b565b5b600084013567ffffffffffffffff811115611b1357611b12611660565b5b611b1f86828701611aae565b9350506020611b30868287016117f3565b9250506040611b41868287016118a8565b9150509250925092565b600060208284031215611b6157611b6061165b565b5b600082013567ffffffffffffffff811115611b7f57611b7e611660565b5b611b8b84828501611aae565b91505092915050565b611b9d816116ea565b8114611ba857600080fd5b50565b600081359050611bba81611b94565b92915050565b60008060408385031215611bd757611bd661165b565b5b6000611be5858286016118a8565b9250506020611bf685828601611bab565b9150509250929050565b600067ffffffffffffffff821115611c1b57611c1a6119b1565b5b611c2482611766565b9050602081019050919050565b6000611c44611c3f84611c00565b611a11565b905082815260208101848484011115611c6057611c5f6119ac565b5b611c6b848285611a5d565b509392505050565b600082601f830112611c8857611c876119a7565b5b8135611c98848260208601611c31565b91505092915050565b60008060008060808587031215611cbb57611cba61165b565b5b6000611cc9878288016118a8565b9450506020611cda878288016118a8565b9350506040611ceb878288016117f3565b925050606085013567ffffffffffffffff811115611d0c57611d0b611660565b5b611d1887828801611c73565b91505092959194509250565b60008060408385031215611d3b57611d3a61165b565b5b6000611d49858286016118a8565b9250506020611d5a858286016118a8565b9150509250929050565b7f4e487b7100000000000000000000000000000000000000000000000000000000600052602260045260246000fd5b60006002820490506001821680611dab57607f821691505b602082108103611dbe57611dbd611d64565b5b50919050565b7f4552433732313a20617070726f76616c20746f2063757272656e74206f776e6560008201527f7200000000000000000000000000000000000000000000000000000000000000602082015250565b6000611e2060218361172b565b9150611e2b82611dc4565b604082019050919050565b60006020820190508181036000830152611e4f81611e13565b9050919050565b7f4552433732313a20617070726f76652063616c6c6572206973206e6f7420746f60008201527f6b656e206f776e6572206f7220617070726f76656420666f7220616c6c000000602082015250565b6000611eb2603d8361172b565b9150611ebd82611e56565b604082019050919050565b60006020820190508181036000830152611ee181611ea5565b9050919050565b7f4552433732313a2063616c6c6572206973206e6f7420746f6b656e206f776e6560008201527f72206f7220617070726f76656400000000000000000000000000000000000000602082015250565b6000611f44602d8361172b565b9150611f4f82611ee8565b604082019050919050565b60006020820190508181036000830152611f7381611f37565b9050919050565b7f4552433732313a20696e76616c696420746f6b656e2049440000000000000000600082015250565b6000611fb060188361172b565b9150611fbb82611f7a565b602082019050919050565b60006020820190508181036000830152611fdf81611fa3565b9050919050565b7f4552433732313a2061646472657373207a65726f206973206e6f74206120766160008201527f6c6964206f776e65720000000000000000000000000000000000000000000000602082015250565b600061204260298361172b565b915061204d82611fe6565b604082019050919050565b6000602082019050818103600083015261207181612035565b9050919050565b600060408201905061208d600083018561197d565b818103602083015261209f8184611777565b90509392505050565b60008190508160005260206000209050919050565b60006020601f8301049050919050565b600082821b905092915050565b60006008830261210a7fffffffffffffffffffffffffffffffffffffffffffffffffffffffffffffffff826120cd565b61211486836120cd565b95508019841693508086168417925050509392505050565b6000819050919050565b600061215161214c612147846117d2565b61212c565b6117d2565b9050919050565b6000819050919050565b61216b83612136565b61217f61217782612158565b8484546120da565b825550505050565b600090565b612194612187565b61219f818484612162565b505050565b5b818110156121c3576121b860008261218c565b6001810190506121a5565b5050565b601f821115612208576121d9816120a8565b6121e2846120bd565b810160208510156121f1578190505b6122056121fd856120bd565b8301826121a4565b50505b505050565b600082821c905092915050565b600061222b6000198460080261220d565b1980831691505092915050565b6000612244838361221a565b9150826002028217905092915050565b61225d82611720565b67ffffffffffffffff811115612276576122756119b1565b5b6122808254611d93565b61228b8282856121c7565b600060209050601f8311600181146122be57600084156122ac578287015190505b6122b68582612238565b86555061231e565b601f1984166122cc866120a8565b60005b828110156122f4578489015182556001820191506020850194506020810190506122cf565b86831015612311578489015161230d601f89168261221a565b8355505b6001600288020188555050505b505050505050565b7f4552433732313a207472616e736665722066726f6d20696e636f72726563742060008201527f6f776e6572000000000000000000000000000000000000000000000000000000602082015250565b600061238260258361172b565b915061238d82612326565b604082019050919050565b600060208201905081810360008301526123b181612375565b9050919050565b7f4552433732313a207472616e7366657220746f20746865207a65726f2061646460008201527f7265737300000000000000000000000000000000000000000000000000000000602082015250565b600061241460248361172b565b915061241f826123b8565b604082019050919050565b6000602082019050818103600083015261244381612407565b9050919050565b7f4552433732313a20617070726f766520746f2063616c6c657200000000000000600082015250565b600061248060198361172b565b915061248b8261244a565b602082019050919050565b600060208201905081810360008301526124af81612473565b9050919050565b7f4552433732313a207472616e7366657220746f206e6f6e20455243373231526560008201527f63656976657220696d706c656d656e7465720000000000000000000000000000602082015250565b600061251260328361172b565b915061251d826124b6565b604082019050919050565b6000602082019050818103600083015261254181612505565b9050919050565b600081519050919050565b600082825260208201905092915050565b600061256f82612548565b6125798185612553565b935061258981856020860161173c565b61259281611766565b840191505092915050565b60006080820190506125b26000830187611867565b6125bf6020830186611867565b6125cc604083018561197d565b81810360608301526125de8184612564565b905095945050505050565b6000815190506125f881611691565b92915050565b6000602082840312156126145761261361165b565b5b6000612622848285016125e9565b91505092915050565b7f4552433732313a206d696e7420746f20746865207a65726f2061646472657373600082015250565b600061266160208361172b565b915061266c8261262b565b602082019050919050565b6000602082019050818103600083015261269081612654565b9050919050565b7f4552433732313a20746f6b656e20616c7265616479206d696e74656400000000600082015250565b60006126cd601c8361172b565b91506126d882612697565b602082019050919050565b600060208201905081810360008301526126fc816126c0565b905091905056fea26469706673582212203015463bbc935978ab965e746523094b43a1f1cd9a2c0c9ddd532eb578e61b4e64736f6c63430008130033",
  "linkReferences": {},
  "deployedLinkReferences": {}
}