{
  "_format": "hh-sol-artifact-1",
  "contractName": "Web3Gram",
  "sourceName": "contracts/Web3Gram.sol",
  "abi": [
    {
      "inputs": [],
      "stateMutability": "nonpayable",
      "type": "constructor"
    },
    {
      "anonymous": false,
      "inputs": [
        {
          "indexed": false,
          "internalType": "uint256",
          "name": "",
          "type": "uint256"
        },
        {
          "indexed": false,
          "internalType": "bool",
          "name": "",
          "type": "bool"
        }
      ],
      "name": "Deleted",
      "type": "event"
    },
    {
      "anonymous": false,
      "inputs": [
        {
          "indexed": false,
          "internalType": "uint256",
          "name": "",
          "type": "uint256"
        },
        {
          "indexed": false,
          "internalType": "address",
          "name": "",
          "type": "address"
        }
      ],
      "name": "Minted",
      "type": "event"
    },
    {
      "anonymous": false,
      "inputs": [
        {
          "indexed": false,
          "internalType": "uint256",
          "name": "",
          "type": "uint256"
        },
        {
          "indexed": false,
          "internalType": "string",
          "name": "",
          "type": "string"
        },
        {
          "indexed": false,
          "internalType": "string",
          "name": "",
          "type": "string"
        },
        {
          "indexed": false,
          "internalType": "address",
          "name": "",
          "type": "address"
        },
        {
          "indexed": false,
          "internalType": "uint256",
          "name": "",
          "type": "uint256"
        },
        {
          "indexed": false,
          "internalType": "uint256",
          "name": "",
          "type": "uint256"
        },
        {
          "indexed": false,
          "internalType": "uint256",
          "name": "",
          "type": "uint256"
        },
        {
          "indexed": false,
          "internalType": "bool",
          "name": "",
          "type": "bool"
        },
        {
          "indexed": false,
          "internalType": "bool",
          "name": "",
          "type": "bool"
        }
      ],
      "name": "Posted",
      "type": "event"
    },
    {
      "anonymous": false,
      "inputs": [
        {
          "indexed": false,
          "internalType": "uint256",
          "name": "",
          "type": "uint256"
        },
        {
          "indexed": false,
          "internalType": "address",
          "name": "",
          "type": "address"
        },
        {
          "indexed": false,
          "internalType": "address payable",
          "name": "",
          "type": "address"
        },
        {
          "indexed": false,
          "internalType": "uint256",
          "name": "",
          "type": "uint256"
        }
      ],
      "name": "Tipped",
      "type": "event"
    },
    {
      "inputs": [
        {
          "internalType": "uint256",
          "name": "_id",
          "type": "uint256"
        }
      ],
      "name": "deletePin",
      "outputs": [],
      "stateMutability": "nonpayable",
      "type": "function"
    },
    {
      "inputs": [
        {
          "internalType": "uint256",
          "name": "_id",
          "type": "uint256"
        }
      ],
      "name": "onMint",
      "outputs": [],
      "stateMutability": "payable",
      "type": "function"
    },
    {
      "inputs": [],
      "name": "owner",
      "outputs": [
        {
          "internalType": "address",
          "name": "",
          "type": "address"
        }
      ],
      "stateMutability": "view",
      "type": "function"
    },
    {
      "inputs": [
        {
          "internalType": "uint256",
          "name": "",
          "type": "uint256"
        }
      ],
      "name": "pins",
      "outputs": [
        {
          "internalType": "uint256",
          "name": "id",
          "type": "uint256"
        },
        {
          "internalType": "string",
          "name": "uri",
          "type": "string"
        },
        {
          "internalType": "string",
          "name": "caption",
          "type": "string"
        },
        {
          "internalType": "address payable",
          "name": "author",
          "type": "address"
        },
        {
          "internalType": "uint256",
          "name": "tips",
          "type": "uint256"
        },
        {
          "internalType": "uint256",
          "name": "mintPrice",
          "type": "uint256"
        },
        {
          "internalType": "bool",
          "name": "enableMint",
          "type": "bool"
        },
        {
          "internalType": "bool",
          "name": "isDeleted",
          "type": "bool"
        },
        {
          "internalType": "string",
          "name": "hash1",
          "type": "string"
        },
        {
          "internalType": "string",
          "name": "hash2",
          "type": "string"
        }
      ],
      "stateMutability": "view",
      "type": "function"
    },
    {
      "inputs": [],
      "name": "pinsCount",
      "outputs": [
        {
          "internalType": "uint256",
          "name": "",
          "type": "uint256"
        }
      ],
      "stateMutability": "view",
      "type": "function"
    },
    {
      "inputs": [
        {
          "internalType": "uint256",
          "name": "",
          "type": "uint256"
        }
      ],
      "name": "pintoAuthor",
      "outputs": [
        {
          "internalType": "address",
          "name": "",
          "type": "address"
        }
      ],
      "stateMutability": "view",
      "type": "function"
    },
    {
      "inputs": [
        {
          "internalType": "string",
          "name": "_uri",
          "type": "string"
        },
        {
          "internalType": "string",
          "name": "_caption",
          "type": "string"
        },
        {
          "internalType": "bool",
          "name": "_mintenable",
          "type": "bool"
        },
        {
          "internalType": "string",
          "name": "_hash1",
          "type": "string"
        },
        {
          "internalType": "string",
          "name": "_hash2",
          "type": "string"
        }
      ],
      "name": "postPin",
      "outputs": [],
      "stateMutability": "nonpayable",
      "type": "function"
    },
    {
      "inputs": [
        {
          "internalType": "string",
          "name": "hash",
          "type": "string"
        }
      ],
      "name": "search",
      "outputs": [
        {
          "components": [
            {
              "internalType": "uint256",
              "name": "id",
              "type": "uint256"
            },
            {
              "internalType": "string",
              "name": "uri",
              "type": "string"
            },
            {
              "internalType": "string",
              "name": "caption",
              "type": "string"
            },
            {
              "internalType": "address payable",
              "name": "author",
              "type": "address"
            },
            {
              "internalType": "uint256",
              "name": "tips",
              "type": "uint256"
            },
            {
              "internalType": "uint256",
              "name": "mintPrice",
              "type": "uint256"
            },
            {
              "internalType": "bool",
              "name": "enableMint",
              "type": "bool"
            },
            {
              "internalType": "bool",
              "name": "isDeleted",
              "type": "bool"
            },
            {
              "internalType": "string",
              "name": "hash1",
              "type": "string"
            },
            {
              "internalType": "string",
              "name": "hash2",
              "type": "string"
            }
          ],
          "internalType": "struct Web3Gram.pin[]",
          "name": "",
          "type": "tuple[]"
        }
      ],
      "stateMutability": "view",
      "type": "function"
    },
    {
      "inputs": [],
      "name": "showallpins",
      "outputs": [
        {
          "components": [
            {
              "internalType": "uint256",
              "name": "id",
              "type": "uint256"
            },
            {
              "internalType": "string",
              "name": "uri",
              "type": "string"
            },
            {
              "internalType": "string",
              "name": "caption",
              "type": "string"
            },
            {
              "internalType": "address payable",
              "name": "author",
              "type": "address"
            },
            {
              "internalType": "uint256",
              "name": "tips",
              "type": "uint256"
            },
            {
              "internalType": "uint256",
              "name": "mintPrice",
              "type": "uint256"
            },
            {
              "internalType": "bool",
              "name": "enableMint",
              "type": "bool"
            },
            {
              "internalType": "bool",
              "name": "isDeleted",
              "type": "bool"
            },
            {
              "internalType": "string",
              "name": "hash1",
              "type": "string"
            },
            {
              "internalType": "string",
              "name": "hash2",
              "type": "string"
            }
          ],
          "internalType": "struct Web3Gram.pin[]",
          "name": "",
          "type": "tuple[]"
        }
      ],
      "stateMutability": "view",
      "type": "function"
    },
    {
      "inputs": [],
      "name": "showmypins",
      "outputs": [
        {
          "components": [
            {
              "internalType": "uint256",
              "name": "id",
              "type": "uint256"
            },
            {
              "internalType": "string",
              "name": "uri",
              "type": "string"
            },
            {
              "internalType": "string",
              "name": "caption",
              "type": "string"
            },
            {
              "internalType": "address payable",
              "name": "author",
              "type": "address"
            },
            {
              "internalType": "uint256",
              "name": "tips",
              "type": "uint256"
            },
            {
              "internalType": "uint256",
              "name": "mintPrice",
              "type": "uint256"
            },
            {
              "internalType": "bool",
              "name": "enableMint",
              "type": "bool"
            },
            {
              "internalType": "bool",
              "name": "isDeleted",
              "type": "bool"
            },
            {
              "internalType": "string",
              "name": "hash1",
              "type": "string"
            },
            {
              "internalType": "string",
              "name": "hash2",
              "type": "string"
            }
          ],
          "internalType": "struct Web3Gram.pin[]",
          "name": "",
          "type": "tuple[]"
        }
      ],
      "stateMutability": "view",
      "type": "function"
    },
    {
      "inputs": [
        {
          "internalType": "address",
          "name": "_user",
          "type": "address"
        }
      ],
      "name": "showuserpins",
      "outputs": [
        {
          "components": [
            {
              "internalType": "uint256",
              "name": "id",
              "type": "uint256"
            },
            {
              "internalType": "string",
              "name": "uri",
              "type": "string"
            },
            {
              "internalType": "string",
              "name": "caption",
              "type": "string"
            },
            {
              "internalType": "address payable",
              "name": "author",
              "type": "address"
            },
            {
              "internalType": "uint256",
              "name": "tips",
              "type": "uint256"
            },
            {
              "internalType": "uint256",
              "name": "mintPrice",
              "type": "uint256"
            },
            {
              "internalType": "bool",
              "name": "enableMint",
              "type": "bool"
            },
            {
              "internalType": "bool",
              "name": "isDeleted",
              "type": "bool"
            },
            {
              "internalType": "string",
              "name": "hash1",
              "type": "string"
            },
            {
              "internalType": "string",
              "name": "hash2",
              "type": "string"
            }
          ],
          "internalType": "struct Web3Gram.pin[]",
          "name": "",
          "type": "tuple[]"
        }
      ],
      "stateMutability": "view",
      "type": "function"
    },
    {
      "inputs": [
        {
          "internalType": "uint256",
          "name": "_id",
          "type": "uint256"
        }
      ],
      "name": "tipPin",
      "outputs": [],
      "stateMutability": "payable",
      "type": "function"
    }
  ],
  "bytecode": "0x60806040526040516200001290620000c4565b604051809103906000f0801580156200002f573d6000803e3d6000fd5b50600460006101000a81548173ffffffffffffffffffffffffffffffffffffffff021916908373ffffffffffffffffffffffffffffffffffffffff1602179055503480156200007d57600080fd5b50336000806101000a81548173ffffffffffffffffffffffffffffffffffffffff021916908373ffffffffffffffffffffffffffffffffffffffff160217905550620000d2565b612b548062003b8983390190565b613aa780620000e26000396000f3fe6080604052600436106100a75760003560e01c80638da5cb5b116100645780638da5cb5b146101c1578063a0e32a07146101ec578063c29713f414610208578063ddafff8b14610245578063f852fa6214610270578063fd08cbb414610299576100a7565b80630f553d2d146100ac578063126065da146100d7578063353eec5514610114578063478bccb21461013f5780637f97d9be1461015b578063820ed08614610184575b600080fd5b3480156100b857600080fd5b506100c16102df565b6040516100ce9190612b09565b60405180910390f35b3480156100e357600080fd5b506100fe60048036038101906100f99190612b73565b6107a0565b60405161010b9190612b09565b60405180910390f35b34801561012057600080fd5b50610129610c63565b6040516101369190612b09565b60405180910390f35b61015960048036038101906101549190612bcc565b611129565b005b34801561016757600080fd5b50610182600480360381019061017d9190612bcc565b6116b9565b005b34801561019057600080fd5b506101ab60048036038101906101a69190612c5e565b61182c565b6040516101b89190612b09565b60405180910390f35b3480156101cd57600080fd5b506101d6611e34565b6040516101e39190612cba565b60405180910390f35b61020660048036038101906102019190612bcc565b611e58565b005b34801561021457600080fd5b5061022f600480360381019061022a9190612bcc565b612080565b60405161023c9190612cba565b60405180910390f35b34801561025157600080fd5b5061025a6120b3565b6040516102679190612ce4565b60405180910390f35b34801561027c57600080fd5b5061029760048036038101906102929190612d2b565b6120b9565b005b3480156102a557600080fd5b506102c060048036038101906102bb9190612bcc565b6124cf565b6040516102d69a99989796959493929190612e8f565b60405180910390f35b6060600060035411610326576040517f08c379a000000000000000000000000000000000000000000000000000000000815260040161031d90612f93565b60405180910390fd5b60008060035467ffffffffffffffff81111561034557610344612fb3565b5b60405190808252806020026020018201604052801561037e57816020015b61036b6127e6565b8152602001906001900390816103635790505b50905060005b600354811015610797576001600060018361039f9190613011565b815260200190815260200160002060060160019054906101000a900460ff1615801561043557503373ffffffffffffffffffffffffffffffffffffffff16600260006001846103ee9190613011565b815260200190815260200160002060009054906101000a900473ffffffffffffffffffffffffffffffffffffffff1673ffffffffffffffffffffffffffffffffffffffff16145b15610784576001600060018361044b9190613011565b8152602001908152602001600020604051806101400160405290816000820154815260200160018201805461047f90613074565b80601f01602080910402602001604051908101604052809291908181526020018280546104ab90613074565b80156104f85780601f106104cd576101008083540402835291602001916104f8565b820191906000526020600020905b8154815290600101906020018083116104db57829003601f168201915b5050505050815260200160028201805461051190613074565b80601f016020809104026020016040519081016040528092919081815260200182805461053d90613074565b801561058a5780601f1061055f5761010080835404028352916020019161058a565b820191906000526020600020905b81548152906001019060200180831161056d57829003601f168201915b505050505081526020016003820160009054906101000a900473ffffffffffffffffffffffffffffffffffffffff1673ffffffffffffffffffffffffffffffffffffffff1673ffffffffffffffffffffffffffffffffffffffff16815260200160048201548152602001600582015481526020016006820160009054906101000a900460ff161515151581526020016006820160019054906101000a900460ff1615151515815260200160078201805461064390613074565b80601f016020809104026020016040519081016040528092919081815260200182805461066f90613074565b80156106bc5780601f10610691576101008083540402835291602001916106bc565b820191906000526020600020905b81548152906001019060200180831161069f57829003601f168201915b505050505081526020016008820180546106d590613074565b80601f016020809104026020016040519081016040528092919081815260200182805461070190613074565b801561074e5780601f106107235761010080835404028352916020019161074e565b820191906000526020600020905b81548152906001019060200180831161073157829003601f168201915b50505050508152505082848151811061076a576107696130a5565b5b60200260200101819052508280610780906130d4565b9350505b808061078f906130d4565b915050610384565b50809250505090565b60606000600354116107e7576040517f08c379a00000000000000000000000000000000000000000000000000000000081526004016107de90612f93565b60405180910390fd5b60008060035467ffffffffffffffff81111561080657610805612fb3565b5b60405190808252806020026020018201604052801561083f57816020015b61082c6127e6565b8152602001906001900390816108245790505b50905060005b600354811015610c5857600160006001836108609190613011565b815260200190815260200160002060060160019054906101000a900460ff161580156108f657508473ffffffffffffffffffffffffffffffffffffffff16600260006001846108af9190613011565b815260200190815260200160002060009054906101000a900473ffffffffffffffffffffffffffffffffffffffff1673ffffffffffffffffffffffffffffffffffffffff16145b15610c45576001600060018361090c9190613011565b8152602001908152602001600020604051806101400160405290816000820154815260200160018201805461094090613074565b80601f016020809104026020016040519081016040528092919081815260200182805461096c90613074565b80156109b95780601f1061098e576101008083540402835291602001916109b9565b820191906000526020600020905b81548152906001019060200180831161099c57829003601f168201915b505050505081526020016002820180546109d290613074565b80601f01602080910402602001604051908101604052809291908181526020018280546109fe90613074565b8015610a4b5780601f10610a2057610100808354040283529160200191610a4b565b820191906000526020600020905b815481529060010190602001808311610a2e57829003601f168201915b505050505081526020016003820160009054906101000a900473ffffffffffffffffffffffffffffffffffffffff1673ffffffffffffffffffffffffffffffffffffffff1673ffffffffffffffffffffffffffffffffffffffff16815260200160048201548152602001600582015481526020016006820160009054906101000a900460ff161515151581526020016006820160019054906101000a900460ff16151515158152602001600782018054610b0490613074565b80601f0160208091040260200160405190810160405280929190818152602001828054610b3090613074565b8015610b7d5780601f10610b5257610100808354040283529160200191610b7d565b820191906000526020600020905b815481529060010190602001808311610b6057829003601f168201915b50505050508152602001600882018054610b9690613074565b80601f0160208091040260200160405190810160405280929190818152602001828054610bc290613074565b8015610c0f5780601f10610be457610100808354040283529160200191610c0f565b820191906000526020600020905b815481529060010190602001808311610bf257829003601f168201915b505050505081525050828481518110610c2b57610c2a6130a5565b5b60200260200101819052508280610c41906130d4565b9350505b8080610c50906130d4565b915050610845565b508092505050919050565b6060600060035411610caa576040517f08c379a0000000000000000000000000000000000000000000000000000000008152600401610ca190612f93565b60405180910390fd5b60008060035467ffffffffffffffff811115610cc957610cc8612fb3565b5b604051908082528060200260200182016040528015610d0257816020015b610cef6127e6565b815260200190600190039081610ce75790505b50905060005b6003548110156111205760016000600183610d239190613011565b815260200190815260200160002060060160019054906101000a900460ff16158015610dbe5750600073ffffffffffffffffffffffffffffffffffffffff1660016000600184610d739190613011565b815260200190815260200160002060030160009054906101000a900473ffffffffffffffffffffffffffffffffffffffff1673ffffffffffffffffffffffffffffffffffffffff1614155b1561110d5760016000600183610dd49190613011565b81526020019081526020016000206040518061014001604052908160008201548152602001600182018054610e0890613074565b80601f0160208091040260200160405190810160405280929190818152602001828054610e3490613074565b8015610e815780601f10610e5657610100808354040283529160200191610e81565b820191906000526020600020905b815481529060010190602001808311610e6457829003601f168201915b50505050508152602001600282018054610e9a90613074565b80601f0160208091040260200160405190810160405280929190818152602001828054610ec690613074565b8015610f135780601f10610ee857610100808354040283529160200191610f13565b820191906000526020600020905b815481529060010190602001808311610ef657829003601f168201915b505050505081526020016003820160009054906101000a900473ffffffffffffffffffffffffffffffffffffffff1673ffffffffffffffffffffffffffffffffffffffff1673ffffffffffffffffffffffffffffffffffffffff16815260200160048201548152602001600582015481526020016006820160009054906101000a900460ff161515151581526020016006820160019054906101000a900460ff16151515158152602001600782018054610fcc90613074565b80601f0160208091040260200160405190810160405280929190818152602001828054610ff890613074565b80156110455780601f1061101a57610100808354040283529160200191611045565b820191906000526020600020905b81548152906001019060200180831161102857829003601f168201915b5050505050815260200160088201805461105e90613074565b80601f016020809104026020016040519081016040528092919081815260200182805461108a90613074565b80156110d75780601f106110ac576101008083540402835291602001916110d7565b820191906000526020600020905b8154815290600101906020018083116110ba57829003601f168201915b5050505050815250508284815181106110f3576110f26130a5565b5b60200260200101819052508280611109906130d4565b9350505b8080611118906130d4565b915050610d08565b50809250505090565b60008111801561113b57506003548111155b61117a576040517f08c379a000000000000000000000000000000000000000000000000000000000815260040161117190613168565b60405180910390fd5b6001600082815260200190815260200160002060060160019054906101000a900460ff16156111de576040517f08c379a00000000000000000000000000000000000000000000000000000000081526004016111d5906131d4565b60405180910390fd5b6001600082815260200190815260200160002060060160009054906101000a900460ff16611241576040517f08c379a000000000000000000000000000000000000000000000000000000000815260040161123890613240565b60405180910390fd5b600060016000838152602001908152602001600020604051806101400160405290816000820154815260200160018201805461127c90613074565b80601f01602080910402602001604051908101604052809291908181526020018280546112a890613074565b80156112f55780601f106112ca576101008083540402835291602001916112f5565b820191906000526020600020905b8154815290600101906020018083116112d857829003601f168201915b5050505050815260200160028201805461130e90613074565b80601f016020809104026020016040519081016040528092919081815260200182805461133a90613074565b80156113875780601f1061135c57610100808354040283529160200191611387565b820191906000526020600020905b81548152906001019060200180831161136a57829003601f168201915b505050505081526020016003820160009054906101000a900473ffffffffffffffffffffffffffffffffffffffff1673ffffffffffffffffffffffffffffffffffffffff1673ffffffffffffffffffffffffffffffffffffffff16815260200160048201548152602001600582015481526020016006820160009054906101000a900460ff161515151581526020016006820160019054906101000a900460ff1615151515815260200160078201805461144090613074565b80601f016020809104026020016040519081016040528092919081815260200182805461146c90613074565b80156114b95780601f1061148e576101008083540402835291602001916114b9565b820191906000526020600020905b81548152906001019060200180831161149c57829003601f168201915b505050505081526020016008820180546114d290613074565b80601f01602080910402602001604051908101604052809291908181526020018280546114fe90613074565b801561154b5780601f106115205761010080835404028352916020019161154b565b820191906000526020600020905b81548152906001019060200180831161152e57829003601f168201915b50505050508152505090508060a00151341461159c576040517f08c379a0000000000000000000000000000000000000000000000000000000008152600401611593906132ac565b60405180910390fd5b600460009054906101000a900473ffffffffffffffffffffffffffffffffffffffff1673ffffffffffffffffffffffffffffffffffffffff16637af1388c826020015184336040518463ffffffff1660e01b81526004016115ff939291906132cc565b600060405180830381600087803b15801561161957600080fd5b505af115801561162d573d6000803e3d6000fd5b50505050806060015173ffffffffffffffffffffffffffffffffffffffff166108fc349081150290604051600060405180830381858888f1935050505015801561167b573d6000803e3d6000fd5b507fb9203d657e9c0ec8274c818292ab0f58b04e1970050716891770eb1bab5d655e82336040516116ad92919061330a565b60405180910390a15050565b6003548111156116fe576040517f08c379a00000000000000000000000000000000000000000000000000000000081526004016116f59061337f565b60405180910390fd5b3373ffffffffffffffffffffffffffffffffffffffff166002600083815260200190815260200160002060009054906101000a900473ffffffffffffffffffffffffffffffffffffffff1673ffffffffffffffffffffffffffffffffffffffff161461179f576040517f08c379a0000000000000000000000000000000000000000000000000000000008152600401611796906133eb565b60405180910390fd5b600180600083815260200190815260200160002060060160016101000a81548160ff0219169083151502179055507f21c5607dde8954452681082d5a9ca38f480350cd33975b3ec3f0ff536426f15b816001600084815260200190815260200160002060060160019054906101000a900460ff1660405161182192919061340b565b60405180910390a150565b606060008060035467ffffffffffffffff81111561184d5761184c612fb3565b5b60405190808252806020026020018201604052801561188657816020015b6118736127e6565b81526020019060019003908161186b5790505b50905060005b600354811015611e2857600160006001836118a79190613011565b815260200190815260200160002060060160019054906101000a900460ff16158015611ac657506119c6600160006001846118e29190613011565b815260200190815260200160002060070180546118fe90613074565b80601f016020809104026020016040519081016040528092919081815260200182805461192a90613074565b80156119775780601f1061194c57610100808354040283529160200191611977565b820191906000526020600020905b81548152906001019060200180831161195a57829003601f168201915b505050505087878080601f016020809104026020016040519081016040528093929190818152602001838380828437600081840152601f19601f8201169050808301925050505050505061277d565b80611ac55750611ac4600160006001846119e09190613011565b815260200190815260200160002060070180546119fc90613074565b80601f0160208091040260200160405190810160405280929190818152602001828054611a2890613074565b8015611a755780601f10611a4a57610100808354040283529160200191611a75565b820191906000526020600020905b815481529060010190602001808311611a5857829003601f168201915b505050505087878080601f016020809104026020016040519081016040528093929190818152602001838380828437600081840152601f19601f8201169050808301925050505050505061277d565b5b5b15611e155760016000600183611adc9190613011565b81526020019081526020016000206040518061014001604052908160008201548152602001600182018054611b1090613074565b80601f0160208091040260200160405190810160405280929190818152602001828054611b3c90613074565b8015611b895780601f10611b5e57610100808354040283529160200191611b89565b820191906000526020600020905b815481529060010190602001808311611b6c57829003601f168201915b50505050508152602001600282018054611ba290613074565b80601f0160208091040260200160405190810160405280929190818152602001828054611bce90613074565b8015611c1b5780601f10611bf057610100808354040283529160200191611c1b565b820191906000526020600020905b815481529060010190602001808311611bfe57829003601f168201915b505050505081526020016003820160009054906101000a900473ffffffffffffffffffffffffffffffffffffffff1673ffffffffffffffffffffffffffffffffffffffff1673ffffffffffffffffffffffffffffffffffffffff16815260200160048201548152602001600582015481526020016006820160009054906101000a900460ff161515151581526020016006820160019054906101000a900460ff16151515158152602001600782018054611cd490613074565b80601f0160208091040260200160405190810160405280929190818152602001828054611d0090613074565b8015611d4d5780601f10611d2257610100808354040283529160200191611d4d565b820191906000526020600020905b815481529060010190602001808311611d3057829003601f168201915b50505050508152602001600882018054611d6690613074565b80601f0160208091040260200160405190810160405280929190818152602001828054611d9290613074565b8015611ddf5780601f10611db457610100808354040283529160200191611ddf565b820191906000526020600020905b815481529060010190602001808311611dc257829003601f168201915b505050505081525050828481518110611dfb57611dfa6130a5565b5b60200260200101819052508280611e11906130d4565b9350505b8080611e20906130d4565b91505061188c565b50809250505092915050565b60008054906101000a900473ffffffffffffffffffffffffffffffffffffffff1681565b600081118015611e6a57506003548111155b611ea9576040517f08c379a0000000000000000000000000000000000000000000000000000000008152600401611ea090613168565b60405180910390fd5b60003411611eec576040517f08c379a0000000000000000000000000000000000000000000000000000000008152600401611ee3906134a6565b60405180910390fd5b60006001600083815260200190815260200160002060030160009054906101000a900473ffffffffffffffffffffffffffffffffffffffff1690508073ffffffffffffffffffffffffffffffffffffffff163373ffffffffffffffffffffffffffffffffffffffff1603611f95576040517f08c379a0000000000000000000000000000000000000000000000000000000008152600401611f8c90613512565b60405180910390fd5b8073ffffffffffffffffffffffffffffffffffffffff166108fc349081150290604051600060405180830381858888f19350505050158015611fdb573d6000803e3d6000fd5b50346001600084815260200190815260200160002060040160008282546120029190613011565b925050819055507fce094bbbb6144b00cddac7b300e0482127a8f4d3a1c16ff030afa0512b3059c582336001600086815260200190815260200160002060030160009054906101000a900473ffffffffffffffffffffffffffffffffffffffff16346040516120749493929190613532565b60405180910390a15050565b60026020528060005260406000206000915054906101000a900473ffffffffffffffffffffffffffffffffffffffff1681565b60035481565b600089899050116120ff576040517f08c379a00000000000000000000000000000000000000000000000000000000081526004016120f6906135c3565b60405180910390fd5b600073ffffffffffffffffffffffffffffffffffffffff163373ffffffffffffffffffffffffffffffffffffffff160361216e576040517f08c379a00000000000000000000000000000000000000000000000000000000081526004016121659061362f565b60405180910390fd5b60036000815480929190612181906130d4565b919050555060405180610140016040528060035481526020018a8a8080601f016020809104026020016040519081016040528093929190818152602001838380828437600081840152601f19601f82011690508083019250505050505050815260200188888080601f016020809104026020016040519081016040528093929190818152602001838380828437600081840152601f19601f8201169050808301925050505050505081526020013373ffffffffffffffffffffffffffffffffffffffff16815260200160008152602001670de0b6b3a76400008152602001861515815260200160001515815260200185858080601f016020809104026020016040519081016040528093929190818152602001838380828437600081840152601f19601f82011690508083019250505050505050815260200183838080601f016020809104026020016040519081016040528093929190818152602001838380828437600081840152601f19601f8201169050808301925050505050505081525060016000600354815260200190815260200160002060008201518160000155602082015181600101908161233691906137fb565b50604082015181600201908161234c91906137fb565b5060608201518160030160006101000a81548173ffffffffffffffffffffffffffffffffffffffff021916908373ffffffffffffffffffffffffffffffffffffffff1602179055506080820151816004015560a0820151816005015560c08201518160060160006101000a81548160ff02191690831515021790555060e08201518160060160016101000a81548160ff0219169083151502179055506101008201518160070190816123fe91906137fb565b5061012082015181600801908161241591906137fb565b509050503360026000600354815260200190815260200160002060006101000a81548173ffffffffffffffffffffffffffffffffffffffff021916908373ffffffffffffffffffffffffffffffffffffffff1602179055507f86e06a011b212fc0240ab3cee4e93f4ce6a0ee50d64cf656faa4a1407d8dfb706003548a8a8a8a33600080670de0b6b3a76400008e60006040516124bc9b9a9998979695949392919061397f565b60405180910390a1505050505050505050565b60016020528060005260406000206000915090508060000154908060010180546124f890613074565b80601f016020809104026020016040519081016040528092919081815260200182805461252490613074565b80156125715780601f1061254657610100808354040283529160200191612571565b820191906000526020600020905b81548152906001019060200180831161255457829003601f168201915b50505050509080600201805461258690613074565b80601f01602080910402602001604051908101604052809291908181526020018280546125b290613074565b80156125ff5780601f106125d4576101008083540402835291602001916125ff565b820191906000526020600020905b8154815290600101906020018083116125e257829003601f168201915b5050505050908060030160009054906101000a900473ffffffffffffffffffffffffffffffffffffffff16908060040154908060050154908060060160009054906101000a900460ff16908060060160019054906101000a900460ff169080600701805461266c90613074565b80601f016020809104026020016040519081016040528092919081815260200182805461269890613074565b80156126e55780601f106126ba576101008083540402835291602001916126e5565b820191906000526020600020905b8154815290600101906020018083116126c857829003601f168201915b5050505050908060080180546126fa90613074565b80601f016020809104026020016040519081016040528092919081815260200182805461272690613074565b80156127735780601f1061274857610100808354040283529160200191612773565b820191906000526020600020905b81548152906001019060200180831161275657829003601f168201915b505050505090508a565b6000816040516020016127909190613a5a565b60405160208183030381529060405280519060200120836040516020016127b79190613a5a565b60405160208183030381529060405280519060200120036127db57600190506127e0565b600090505b92915050565b604051806101400160405280600081526020016060815260200160608152602001600073ffffffffffffffffffffffffffffffffffffffff168152602001600081526020016000815260200160001515815260200160001515815260200160608152602001606081525090565b600081519050919050565b600082825260208201905092915050565b6000819050602082019050919050565b6000819050919050565b6128928161287f565b82525050565b600081519050919050565b600082825260208201905092915050565b60005b838110156128d25780820151818401526020810190506128b7565b60008484015250505050565b6000601f19601f8301169050919050565b60006128fa82612898565b61290481856128a3565b93506129148185602086016128b4565b61291d816128de565b840191505092915050565b600073ffffffffffffffffffffffffffffffffffffffff82169050919050565b600061295382612928565b9050919050565b61296381612948565b82525050565b60008115159050919050565b61297e81612969565b82525050565b60006101408301600083015161299d6000860182612889565b50602083015184820360208601526129b582826128ef565b915050604083015184820360408601526129cf82826128ef565b91505060608301516129e4606086018261295a565b5060808301516129f76080860182612889565b5060a0830151612a0a60a0860182612889565b5060c0830151612a1d60c0860182612975565b5060e0830151612a3060e0860182612975565b50610100830151848203610100860152612a4a82826128ef565b915050610120830151848203610120860152612a6682826128ef565b9150508091505092915050565b6000612a7f8383612984565b905092915050565b6000602082019050919050565b6000612a9f82612853565b612aa9818561285e565b935083602082028501612abb8561286f565b8060005b85811015612af75784840389528151612ad88582612a73565b9450612ae383612a87565b925060208a01995050600181019050612abf565b50829750879550505050505092915050565b60006020820190508181036000830152612b238184612a94565b905092915050565b600080fd5b600080fd5b6000612b4082612928565b9050919050565b612b5081612b35565b8114612b5b57600080fd5b50565b600081359050612b6d81612b47565b92915050565b600060208284031215612b8957612b88612b2b565b5b6000612b9784828501612b5e565b91505092915050565b612ba98161287f565b8114612bb457600080fd5b50565b600081359050612bc681612ba0565b92915050565b600060208284031215612be257612be1612b2b565b5b6000612bf084828501612bb7565b91505092915050565b600080fd5b600080fd5b600080fd5b60008083601f840112612c1e57612c1d612bf9565b5b8235905067ffffffffffffffff811115612c3b57612c3a612bfe565b5b602083019150836001820283011115612c5757612c56612c03565b5b9250929050565b60008060208385031215612c7557612c74612b2b565b5b600083013567ffffffffffffffff811115612c9357612c92612b30565b5b612c9f85828601612c08565b92509250509250929050565b612cb481612b35565b82525050565b6000602082019050612ccf6000830184612cab565b92915050565b612cde8161287f565b82525050565b6000602082019050612cf96000830184612cd5565b92915050565b612d0881612969565b8114612d1357600080fd5b50565b600081359050612d2581612cff565b92915050565b600080600080600080600080600060a08a8c031215612d4d57612d4c612b2b565b5b60008a013567ffffffffffffffff811115612d6b57612d6a612b30565b5b612d778c828d01612c08565b995099505060208a013567ffffffffffffffff811115612d9a57612d99612b30565b5b612da68c828d01612c08565b97509750506040612db98c828d01612d16565b95505060608a013567ffffffffffffffff811115612dda57612dd9612b30565b5b612de68c828d01612c08565b945094505060808a013567ffffffffffffffff811115612e0957612e08612b30565b5b612e158c828d01612c08565b92509250509295985092959850929598565b600082825260208201905092915050565b6000612e4382612898565b612e4d8185612e27565b9350612e5d8185602086016128b4565b612e66816128de565b840191505092915050565b612e7a81612948565b82525050565b612e8981612969565b82525050565b600061014082019050612ea5600083018d612cd5565b8181036020830152612eb7818c612e38565b90508181036040830152612ecb818b612e38565b9050612eda606083018a612e71565b612ee76080830189612cd5565b612ef460a0830188612cd5565b612f0160c0830187612e80565b612f0e60e0830186612e80565b818103610100830152612f218185612e38565b9050818103610120830152612f368184612e38565b90509b9a5050505050505050505050565b7f4e6f20706f737473000000000000000000000000000000000000000000000000600082015250565b6000612f7d600883612e27565b9150612f8882612f47565b602082019050919050565b60006020820190508181036000830152612fac81612f70565b9050919050565b7f4e487b7100000000000000000000000000000000000000000000000000000000600052604160045260246000fd5b7f4e487b7100000000000000000000000000000000000000000000000000000000600052601160045260246000fd5b600061301c8261287f565b91506130278361287f565b925082820190508082111561303f5761303e612fe2565b5b92915050565b7f4e487b7100000000000000000000000000000000000000000000000000000000600052602260045260246000fd5b6000600282049050600182168061308c57607f821691505b60208210810361309f5761309e613045565b5b50919050565b7f4e487b7100000000000000000000000000000000000000000000000000000000600052603260045260246000fd5b60006130df8261287f565b91507fffffffffffffffffffffffffffffffffffffffffffffffffffffffffffffffff820361311157613110612fe2565b5b600182019050919050565b7f496e76616c696420494400000000000000000000000000000000000000000000600082015250565b6000613152600a83612e27565b915061315d8261311c565b602082019050919050565b6000602082019050818103600083015261318181613145565b9050919050565b7f50696e2064656c65746564000000000000000000000000000000000000000000600082015250565b60006131be600b83612e27565b91506131c982613188565b602082019050919050565b600060208201905081810360008301526131ed816131b1565b9050919050565b7f4d696e74696e67206e6f7420656e6561626c6564000000000000000000000000600082015250565b600061322a601483612e27565b9150613235826131f4565b602082019050919050565b600060208201905081810360008301526132598161321d565b9050919050565b7f4e6f7420656e6f75676820657468657200000000000000000000000000000000600082015250565b6000613296601083612e27565b91506132a182613260565b602082019050919050565b600060208201905081810360008301526132c581613289565b9050919050565b600060608201905081810360008301526132e68186612e38565b90506132f56020830185612cd5565b6133026040830184612cab565b949350505050565b600060408201905061331f6000830185612cd5565b61332c6020830184612cab565b9392505050565b7f496e76616c696420696400000000000000000000000000000000000000000000600082015250565b6000613369600a83612e27565b915061337482613333565b602082019050919050565b600060208201905081810360008301526133988161335c565b9050919050565b7f4f6e6c7920617574686f72732063616e2064656c657465206120706f73740000600082015250565b60006133d5601e83612e27565b91506133e08261339f565b602082019050919050565b60006020820190508181036000830152613404816133c8565b9050919050565b60006040820190506134206000830185612cd5565b61342d6020830184612e80565b9392505050565b7f54697020616d6f756e742073686f756c64206265206d6f7265207468616e207a60008201527f65726f0000000000000000000000000000000000000000000000000000000000602082015250565b6000613490602383612e27565b915061349b82613434565b604082019050919050565b600060208201905081810360008301526134bf81613483565b9050919050565b7f417574686f72732063616e7420746970207468656972206f776e2070696e7300600082015250565b60006134fc601f83612e27565b9150613507826134c6565b602082019050919050565b6000602082019050818103600083015261352b816134ef565b9050919050565b60006080820190506135476000830187612cd5565b6135546020830186612cab565b6135616040830185612e71565b61356e6060830184612cd5565b95945050505050565b7f55524c2073686f756c642062652076616c696400000000000000000000000000600082015250565b60006135ad601383612e27565b91506135b882613577565b602082019050919050565b600060208201905081810360008301526135dc816135a0565b9050919050565b7f4d73672e73656e646572206d7573742065786973740000000000000000000000600082015250565b6000613619601583612e27565b9150613624826135e3565b602082019050919050565b600060208201905081810360008301526136488161360c565b9050919050565b60008190508160005260206000209050919050565b60006020601f8301049050919050565b600082821b905092915050565b6000600883026136b17fffffffffffffffffffffffffffffffffffffffffffffffffffffffffffffffff82613674565b6136bb8683613674565b95508019841693508086168417925050509392505050565b6000819050919050565b60006136f86136f36136ee8461287f565b6136d3565b61287f565b9050919050565b6000819050919050565b613712836136dd565b61372661371e826136ff565b848454613681565b825550505050565b600090565b61373b61372e565b613746818484613709565b505050565b5b8181101561376a5761375f600082613733565b60018101905061374c565b5050565b601f8211156137af576137808161364f565b61378984613664565b81016020851015613798578190505b6137ac6137a485613664565b83018261374b565b50505b505050565b600082821c905092915050565b60006137d2600019846008026137b4565b1980831691505092915050565b60006137eb83836137c1565b9150826002028217905092915050565b61380482612898565b67ffffffffffffffff81111561381d5761381c612fb3565b5b6138278254613074565b61383282828561376e565b600060209050601f8311600181146138655760008415613853578287015190505b61385d85826137df565b8655506138c5565b601f1984166138738661364f565b60005b8281101561389b57848901518255600182019150602085019450602081019050613876565b868310156138b857848901516138b4601f8916826137c1565b8355505b6001600288020188555050505b505050505050565b82818337600083830152505050565b60006138e88385612e27565b93506138f58385846138cd565b6138fe836128de565b840190509392505050565b6000819050919050565b600061392e61392961392484613909565b6136d3565b61287f565b9050919050565b61393e81613913565b82525050565b6000819050919050565b600061396961396461395f84613944565b6136d3565b61287f565b9050919050565b6139798161394e565b82525050565b600061012082019050613995600083018e612cd5565b81810360208301526139a8818c8e6138dc565b905081810360408301526139bd818a8c6138dc565b90506139cc6060830189612cab565b6139d96080830188613935565b6139e660a0830187613935565b6139f360c0830186613970565b613a0060e0830185612e80565b613a0e610100830184612e80565b9c9b505050505050505050505050565b600081905092915050565b6000613a3482612898565b613a3e8185613a1e565b9350613a4e8185602086016128b4565b80840191505092915050565b6000613a668284613a29565b91508190509291505056fea2646970667358221220a4284f7445d7037ba9459355b1f0b87d3cf9ee9ff44d57573d808d9d28b6d50464736f6c6343000813003360806040523480156200001157600080fd5b506040518060400160405280600881526020017f576562334772616d0000000000000000000000000000000000000000000000008152506040518060400160405280600281526020017f503300000000000000000000000000000000000000000000000000000000000081525081600090816200008f919062000324565b508060019081620000a1919062000324565b5050506200040b565b600081519050919050565b7f4e487b7100000000000000000000000000000000000000000000000000000000600052604160045260246000fd5b7f4e487b7100000000000000000000000000000000000000000000000000000000600052602260045260246000fd5b600060028204905060018216806200012c57607f821691505b602082108103620001425762000141620000e4565b5b50919050565b60008190508160005260206000209050919050565b60006020601f8301049050919050565b600082821b905092915050565b600060088302620001ac7fffffffffffffffffffffffffffffffffffffffffffffffffffffffffffffffff826200016d565b620001b886836200016d565b95508019841693508086168417925050509392505050565b6000819050919050565b6000819050919050565b600062000205620001ff620001f984620001d0565b620001da565b620001d0565b9050919050565b6000819050919050565b6200022183620001e4565b6200023962000230826200020c565b8484546200017a565b825550505050565b600090565b6200025062000241565b6200025d81848462000216565b505050565b5b8181101562000285576200027960008262000246565b60018101905062000263565b5050565b601f821115620002d4576200029e8162000148565b620002a9846200015d565b81016020851015620002b9578190505b620002d1620002c8856200015d565b83018262000262565b50505b505050565b600082821c905092915050565b6000620002f960001984600802620002d9565b1980831691505092915050565b6000620003148383620002e6565b9150826002028217905092915050565b6200032f82620000aa565b67ffffffffffffffff8111156200034b576200034a620000b5565b5b62000357825462000113565b6200036482828562000289565b600060209050601f8311600181146200039c576000841562000387578287015190505b62000393858262000306565b86555062000403565b601f198416620003ac8662000148565b60005b82811015620003d657848901518255600182019150602085019450602081019050620003af565b86831015620003f65784890151620003f2601f891682620002e6565b8355505b6001600288020188555050505b505050505050565b612739806200041b6000396000f3fe608060405234801561001057600080fd5b50600436106100f55760003560e01c806370a0823111610097578063a22cb46511610066578063a22cb46514610282578063b88d4fde1461029e578063c87b56dd146102ba578063e985e9c5146102ea576100f5565b806370a08231146101fc5780637af1388c1461022c57806395d89b4114610248578063a1cb7d3a14610266576100f5565b8063095ea7b3116100d3578063095ea7b31461017857806323b872dd1461019457806342842e0e146101b05780636352211e146101cc576100f5565b806301ffc9a7146100fa57806306fdde031461012a578063081812fc14610148575b600080fd5b610114600480360381019061010f91906116bd565b61031a565b6040516101219190611705565b60405180910390f35b61013261037b565b60405161013f91906117b0565b60405180910390f35b610162600480360381019061015d9190611808565b61040d565b60405161016f9190611876565b60405180910390f35b610192600480360381019061018d91906118bd565b610453565b005b6101ae60048036038101906101a991906118fd565b61056a565b005b6101ca60048036038101906101c591906118fd565b6105ca565b005b6101e660048036038101906101e19190611808565b6105ea565b6040516101f39190611876565b60405180910390f35b61021660048036038101906102119190611950565b610670565b604051610223919061198c565b60405180910390f35b61024660048036038101906102419190611adc565b610727565b005b610250610782565b60405161025d91906117b0565b60405180910390f35b610280600480360381019061027b9190611b4b565b610814565b005b61029c60048036038101906102979190611bc0565b610827565b005b6102b860048036038101906102b39190611ca1565b61083d565b005b6102d460048036038101906102cf9190611808565b61089f565b6040516102e191906117b0565b60405180910390f35b61030460048036038101906102ff9190611d24565b610945565b6040516103119190611705565b60405180910390f35b6000634906490660e01b7bffffffffffffffffffffffffffffffffffffffffffffffffffffffff1916827bffffffffffffffffffffffffffffffffffffffffffffffffffffffff191614806103745750610373826109d9565b5b9050919050565b60606000805461038a90611d93565b80601f01602080910402602001604051908101604052809291908181526020018280546103b690611d93565b80156104035780601f106103d857610100808354040283529160200191610403565b820191906000526020600020905b8154815290600101906020018083116103e657829003601f168201915b5050505050905090565b600061041882610abb565b6004600083815260200190815260200160002060009054906101000a900473ffffffffffffffffffffffffffffffffffffffff169050919050565b600061045e826105ea565b90508073ffffffffffffffffffffffffffffffffffffffff168373ffffffffffffffffffffffffffffffffffffffff16036104ce576040517f08c379a00000000000000000000000000000000000000000000000000000000081526004016104c590611e36565b60405180910390fd5b8073ffffffffffffffffffffffffffffffffffffffff166104ed610b06565b73ffffffffffffffffffffffffffffffffffffffff16148061051c575061051b81610516610b06565b610945565b5b61055b576040517f08c379a000000000000000000000000000000000000000000000000000000000815260040161055290611ec8565b60405180910390fd5b6105658383610b0e565b505050565b61057b610575610b06565b82610bc7565b6105ba576040517f08c379a00000000000000000000000000000000000000000000000000000000081526004016105b190611f5a565b60405180910390fd5b6105c5838383610c5c565b505050565b6105e58383836040518060200160405280600081525061083d565b505050565b6000806105f683610f55565b9050600073ffffffffffffffffffffffffffffffffffffffff168173ffffffffffffffffffffffffffffffffffffffff1603610667576040517f08c379a000000000000000000000000000000000000000000000000000000000815260040161065e90611fc6565b60405180910390fd5b80915050919050565b60008073ffffffffffffffffffffffffffffffffffffffff168273ffffffffffffffffffffffffffffffffffffffff16036106e0576040517f08c379a00000000000000000000000000000000000000000000000000000000081526004016106d790612058565b60405180910390fd5b600360008373ffffffffffffffffffffffffffffffffffffffff1673ffffffffffffffffffffffffffffffffffffffff168152602001908152602001600020549050919050565b6107318183610f92565b61073a83610814565b6107438261089f565b507faf2e757b9971840eeffcbdff2672715b03bd62e156cbf50a5dad76aa484cdc1c8284604051610775929190612078565b60405180910390a1505050565b60606001805461079190611d93565b80601f01602080910402602001604051908101604052809291908181526020018280546107bd90611d93565b801561080a5780601f106107df5761010080835404028352916020019161080a565b820191906000526020600020905b8154815290600101906020018083116107ed57829003601f168201915b5050505050905090565b80600790816108239190612254565b5050565b610839610832610b06565b8383610fb0565b5050565b61084e610848610b06565b83610bc7565b61088d576040517f08c379a000000000000000000000000000000000000000000000000000000000815260040161088490611f5a565b60405180910390fd5b6108998484848461111c565b50505050565b60606108aa82611178565b6108b357600080fd5b600780546108c090611d93565b80601f01602080910402602001604051908101604052809291908181526020018280546108ec90611d93565b80156109395780601f1061090e57610100808354040283529160200191610939565b820191906000526020600020905b81548152906001019060200180831161091c57829003601f168201915b50505050509050919050565b6000600560008473ffffffffffffffffffffffffffffffffffffffff1673ffffffffffffffffffffffffffffffffffffffff16815260200190815260200160002060008373ffffffffffffffffffffffffffffffffffffffff1673ffffffffffffffffffffffffffffffffffffffff16815260200190815260200160002060009054906101000a900460ff16905092915050565b60007f80ac58cd000000000000000000000000000000000000000000000000000000007bffffffffffffffffffffffffffffffffffffffffffffffffffffffff1916827bffffffffffffffffffffffffffffffffffffffffffffffffffffffff19161480610aa457507f5b5e139f000000000000000000000000000000000000000000000000000000007bffffffffffffffffffffffffffffffffffffffffffffffffffffffff1916827bffffffffffffffffffffffffffffffffffffffffffffffffffffffff1916145b80610ab45750610ab3826111b9565b5b9050919050565b610ac481611178565b610b03576040517f08c379a0000000000000000000000000000000000000000000000000000000008152600401610afa90611fc6565b60405180910390fd5b50565b600033905090565b816004600083815260200190815260200160002060006101000a81548173ffffffffffffffffffffffffffffffffffffffff021916908373ffffffffffffffffffffffffffffffffffffffff160217905550808273ffffffffffffffffffffffffffffffffffffffff16610b81836105ea565b73ffffffffffffffffffffffffffffffffffffffff167f8c5be1e5ebec7d5bd14f71427d1e84f3dd0314c0f7b2291e5b200ac8c7c3b92560405160405180910390a45050565b600080610bd3836105ea565b90508073ffffffffffffffffffffffffffffffffffffffff168473ffffffffffffffffffffffffffffffffffffffff161480610c155750610c148185610945565b5b80610c5357508373ffffffffffffffffffffffffffffffffffffffff16610c3b8461040d565b73ffffffffffffffffffffffffffffffffffffffff16145b91505092915050565b8273ffffffffffffffffffffffffffffffffffffffff16610c7c826105ea565b73ffffffffffffffffffffffffffffffffffffffff1614610cd2576040517f08c379a0000000000000000000000000000000000000000000000000000000008152600401610cc990612398565b60405180910390fd5b600073ffffffffffffffffffffffffffffffffffffffff168273ffffffffffffffffffffffffffffffffffffffff1603610d41576040517f08c379a0000000000000000000000000000000000000000000000000000000008152600401610d389061242a565b60405180910390fd5b610d4e8383836001611223565b8273ffffffffffffffffffffffffffffffffffffffff16610d6e826105ea565b73ffffffffffffffffffffffffffffffffffffffff1614610dc4576040517f08c379a0000000000000000000000000000000000000000000000000000000008152600401610dbb90612398565b60405180910390fd5b6004600082815260200190815260200160002060006101000a81549073ffffffffffffffffffffffffffffffffffffffff02191690556001600360008573ffffffffffffffffffffffffffffffffffffffff1673ffffffffffffffffffffffffffffffffffffffff168152602001908152602001600020600082825403925050819055506001600360008473ffffffffffffffffffffffffffffffffffffffff1673ffffffffffffffffffffffffffffffffffffffff16815260200190815260200160002060008282540192505081905550816002600083815260200190815260200160002060006101000a81548173ffffffffffffffffffffffffffffffffffffffff021916908373ffffffffffffffffffffffffffffffffffffffff160217905550808273ffffffffffffffffffffffffffffffffffffffff168473ffffffffffffffffffffffffffffffffffffffff167fddf252ad1be2c89b69c2b068fc378daa952ba7f163c4a11628f55a4df523b3ef60405160405180910390a4610f508383836001611229565b505050565b60006002600083815260200190815260200160002060009054906101000a900473ffffffffffffffffffffffffffffffffffffffff169050919050565b610fac82826040518060200160405280600081525061122f565b5050565b8173ffffffffffffffffffffffffffffffffffffffff168373ffffffffffffffffffffffffffffffffffffffff160361101e576040517f08c379a000000000000000000000000000000000000000000000000000000000815260040161101590612496565b60405180910390fd5b80600560008573ffffffffffffffffffffffffffffffffffffffff1673ffffffffffffffffffffffffffffffffffffffff16815260200190815260200160002060008473ffffffffffffffffffffffffffffffffffffffff1673ffffffffffffffffffffffffffffffffffffffff16815260200190815260200160002060006101000a81548160ff0219169083151502179055508173ffffffffffffffffffffffffffffffffffffffff168373ffffffffffffffffffffffffffffffffffffffff167f17307eab39ab6107e8899845ad3d59bd9653f200f220920489ca2b5937696c318360405161110f9190611705565b60405180910390a3505050565b611127848484610c5c565b6111338484848461128a565b611172576040517f08c379a000000000000000000000000000000000000000000000000000000000815260040161116990612528565b60405180910390fd5b50505050565b60008073ffffffffffffffffffffffffffffffffffffffff1661119a83610f55565b73ffffffffffffffffffffffffffffffffffffffff1614159050919050565b60007f01ffc9a7000000000000000000000000000000000000000000000000000000007bffffffffffffffffffffffffffffffffffffffffffffffffffffffff1916827bffffffffffffffffffffffffffffffffffffffffffffffffffffffff1916149050919050565b50505050565b50505050565b6112398383611411565b611246600084848461128a565b611285576040517f08c379a000000000000000000000000000000000000000000000000000000000815260040161127c90612528565b60405180910390fd5b505050565b60006112ab8473ffffffffffffffffffffffffffffffffffffffff1661162e565b15611404578373ffffffffffffffffffffffffffffffffffffffff1663150b7a026112d4610b06565b8786866040518563ffffffff1660e01b81526004016112f6949392919061259d565b6020604051808303816000875af192505050801561133257506040513d601f19601f8201168201806040525081019061132f91906125fe565b60015b6113b4573d8060008114611362576040519150601f19603f3d011682016040523d82523d6000602084013e611367565b606091505b5060008151036113ac576040517f08c379a00000000000000000000000000000000000000000000000000000000081526004016113a390612528565b60405180910390fd5b805181602001fd5b63150b7a0260e01b7bffffffffffffffffffffffffffffffffffffffffffffffffffffffff1916817bffffffffffffffffffffffffffffffffffffffffffffffffffffffff191614915050611409565b600190505b949350505050565b600073ffffffffffffffffffffffffffffffffffffffff168273ffffffffffffffffffffffffffffffffffffffff1603611480576040517f08c379a000000000000000000000000000000000000000000000000000000000815260040161147790612677565b60405180910390fd5b61148981611178565b156114c9576040517f08c379a00000000000000000000000000000000000000000000000000000000081526004016114c0906126e3565b60405180910390fd5b6114d7600083836001611223565b6114e081611178565b15611520576040517f08c379a0000000000000000000000000000000000000000000000000000000008152600401611517906126e3565b60405180910390fd5b6001600360008473ffffffffffffffffffffffffffffffffffffffff1673ffffffffffffffffffffffffffffffffffffffff16815260200190815260200160002060008282540192505081905550816002600083815260200190815260200160002060006101000a81548173ffffffffffffffffffffffffffffffffffffffff021916908373ffffffffffffffffffffffffffffffffffffffff160217905550808273ffffffffffffffffffffffffffffffffffffffff16600073ffffffffffffffffffffffffffffffffffffffff167fddf252ad1be2c89b69c2b068fc378daa952ba7f163c4a11628f55a4df523b3ef60405160405180910390a461162a600083836001611229565b5050565b6000808273ffffffffffffffffffffffffffffffffffffffff163b119050919050565b6000604051905090565b600080fd5b600080fd5b60007fffffffff0000000000000000000000000000000000000000000000000000000082169050919050565b61169a81611665565b81146116a557600080fd5b50565b6000813590506116b781611691565b92915050565b6000602082840312156116d3576116d261165b565b5b60006116e1848285016116a8565b91505092915050565b60008115159050919050565b6116ff816116ea565b82525050565b600060208201905061171a60008301846116f6565b92915050565b600081519050919050565b600082825260208201905092915050565b60005b8381101561175a57808201518184015260208101905061173f565b60008484015250505050565b6000601f19601f8301169050919050565b600061178282611720565b61178c818561172b565b935061179c81856020860161173c565b6117a581611766565b840191505092915050565b600060208201905081810360008301526117ca8184611777565b905092915050565b6000819050919050565b6117e5816117d2565b81146117f057600080fd5b50565b600081359050611802816117dc565b92915050565b60006020828403121561181e5761181d61165b565b5b600061182c848285016117f3565b91505092915050565b600073ffffffffffffffffffffffffffffffffffffffff82169050919050565b600061186082611835565b9050919050565b61187081611855565b82525050565b600060208201905061188b6000830184611867565b92915050565b61189a81611855565b81146118a557600080fd5b50565b6000813590506118b781611891565b92915050565b600080604083850312156118d4576118d361165b565b5b60006118e2858286016118a8565b92505060206118f3858286016117f3565b9150509250929050565b6000806000606084860312156119165761191561165b565b5b6000611924868287016118a8565b9350506020611935868287016118a8565b9250506040611946868287016117f3565b9150509250925092565b6000602082840312156119665761196561165b565b5b6000611974848285016118a8565b91505092915050565b611986816117d2565b82525050565b60006020820190506119a1600083018461197d565b92915050565b600080fd5b600080fd5b7f4e487b7100000000000000000000000000000000000000000000000000000000600052604160045260246000fd5b6119e982611766565b810181811067ffffffffffffffff82111715611a0857611a076119b1565b5b80604052505050565b6000611a1b611651565b9050611a2782826119e0565b919050565b600067ffffffffffffffff821115611a4757611a466119b1565b5b611a5082611766565b9050602081019050919050565b82818337600083830152505050565b6000611a7f611a7a84611a2c565b611a11565b905082815260208101848484011115611a9b57611a9a6119ac565b5b611aa6848285611a5d565b509392505050565b600082601f830112611ac357611ac26119a7565b5b8135611ad3848260208601611a6c565b91505092915050565b600080600060608486031215611af557611af461165b565b5b600084013567ffffffffffffffff811115611b1357611b12611660565b5b611b1f86828701611aae565b9350506020611b30868287016117f3565b9250506040611b41868287016118a8565b9150509250925092565b600060208284031215611b6157611b6061165b565b5b600082013567ffffffffffffffff811115611b7f57611b7e611660565b5b611b8b84828501611aae565b91505092915050565b611b9d816116ea565b8114611ba857600080fd5b50565b600081359050611bba81611b94565b92915050565b60008060408385031215611bd757611bd661165b565b5b6000611be5858286016118a8565b9250506020611bf685828601611bab565b9150509250929050565b600067ffffffffffffffff821115611c1b57611c1a6119b1565b5b611c2482611766565b9050602081019050919050565b6000611c44611c3f84611c00565b611a11565b905082815260208101848484011115611c6057611c5f6119ac565b5b611c6b848285611a5d565b509392505050565b600082601f830112611c8857611c876119a7565b5b8135611c98848260208601611c31565b91505092915050565b60008060008060808587031215611cbb57611cba61165b565b5b6000611cc9878288016118a8565b9450506020611cda878288016118a8565b9350506040611ceb878288016117f3565b925050606085013567ffffffffffffffff811115611d0c57611d0b611660565b5b611d1887828801611c73565b91505092959194509250565b60008060408385031215611d3b57611d3a61165b565b5b6000611d49858286016118a8565b9250506020611d5a858286016118a8565b9150509250929050565b7f4e487b7100000000000000000000000000000000000000000000000000000000600052602260045260246000fd5b60006002820490506001821680611dab57607f821691505b602082108103611dbe57611dbd611d64565b5b50919050565b7f4552433732313a20617070726f76616c20746f2063757272656e74206f776e6560008201527f7200000000000000000000000000000000000000000000000000000000000000602082015250565b6000611e2060218361172b565b9150611e2b82611dc4565b604082019050919050565b60006020820190508181036000830152611e4f81611e13565b9050919050565b7f4552433732313a20617070726f76652063616c6c6572206973206e6f7420746f60008201527f6b656e206f776e6572206f7220617070726f76656420666f7220616c6c000000602082015250565b6000611eb2603d8361172b565b9150611ebd82611e56565b604082019050919050565b60006020820190508181036000830152611ee181611ea5565b9050919050565b7f4552433732313a2063616c6c6572206973206e6f7420746f6b656e206f776e6560008201527f72206f7220617070726f76656400000000000000000000000000000000000000602082015250565b6000611f44602d8361172b565b9150611f4f82611ee8565b604082019050919050565b60006020820190508181036000830152611f7381611f37565b9050919050565b7f4552433732313a20696e76616c696420746f6b656e2049440000000000000000600082015250565b6000611fb060188361172b565b9150611fbb82611f7a565b602082019050919050565b60006020820190508181036000830152611fdf81611fa3565b9050919050565b7f4552433732313a2061646472657373207a65726f206973206e6f74206120766160008201527f6c6964206f776e65720000000000000000000000000000000000000000000000602082015250565b600061204260298361172b565b915061204d82611fe6565b604082019050919050565b6000602082019050818103600083015261207181612035565b9050919050565b600060408201905061208d600083018561197d565b818103602083015261209f8184611777565b90509392505050565b60008190508160005260206000209050919050565b60006020601f8301049050919050565b600082821b905092915050565b60006008830261210a7fffffffffffffffffffffffffffffffffffffffffffffffffffffffffffffffff826120cd565b61211486836120cd565b95508019841693508086168417925050509392505050565b6000819050919050565b600061215161214c612147846117d2565b61212c565b6117d2565b9050919050565b6000819050919050565b61216b83612136565b61217f61217782612158565b8484546120da565b825550505050565b600090565b612194612187565b61219f818484612162565b505050565b5b818110156121c3576121b860008261218c565b6001810190506121a5565b5050565b601f821115612208576121d9816120a8565b6121e2846120bd565b810160208510156121f1578190505b6122056121fd856120bd565b8301826121a4565b50505b505050565b600082821c905092915050565b600061222b6000198460080261220d565b1980831691505092915050565b6000612244838361221a565b9150826002028217905092915050565b61225d82611720565b67ffffffffffffffff811115612276576122756119b1565b5b6122808254611d93565b61228b8282856121c7565b600060209050601f8311600181146122be57600084156122ac578287015190505b6122b68582612238565b86555061231e565b601f1984166122cc866120a8565b60005b828110156122f4578489015182556001820191506020850194506020810190506122cf565b86831015612311578489015161230d601f89168261221a565b8355505b6001600288020188555050505b505050505050565b7f4552433732313a207472616e736665722066726f6d20696e636f72726563742060008201527f6f776e6572000000000000000000000000000000000000000000000000000000602082015250565b600061238260258361172b565b915061238d82612326565b604082019050919050565b600060208201905081810360008301526123b181612375565b9050919050565b7f4552433732313a207472616e7366657220746f20746865207a65726f2061646460008201527f7265737300000000000000000000000000000000000000000000000000000000602082015250565b600061241460248361172b565b915061241f826123b8565b604082019050919050565b6000602082019050818103600083015261244381612407565b9050919050565b7f4552433732313a20617070726f766520746f2063616c6c657200000000000000600082015250565b600061248060198361172b565b915061248b8261244a565b602082019050919050565b600060208201905081810360008301526124af81612473565b9050919050565b7f4552433732313a207472616e7366657220746f206e6f6e20455243373231526560008201527f63656976657220696d706c656d656e7465720000000000000000000000000000602082015250565b600061251260328361172b565b915061251d826124b6565b604082019050919050565b6000602082019050818103600083015261254181612505565b9050919050565b600081519050919050565b600082825260208201905092915050565b600061256f82612548565b6125798185612553565b935061258981856020860161173c565b61259281611766565b840191505092915050565b60006080820190506125b26000830187611867565b6125bf6020830186611867565b6125cc604083018561197d565b81810360608301526125de8184612564565b905095945050505050565b6000815190506125f881611691565b92915050565b6000602082840312156126145761261361165b565b5b6000612622848285016125e9565b91505092915050565b7f4552433732313a206d696e7420746f20746865207a65726f2061646472657373600082015250565b600061266160208361172b565b915061266c8261262b565b602082019050919050565b6000602082019050818103600083015261269081612654565b9050919050565b7f4552433732313a20746f6b656e20616c7265616479206d696e74656400000000600082015250565b60006126cd601c8361172b565b91506126d882612697565b602082019050919050565b600060208201905081810360008301526126fc816126c0565b905091905056fea26469706673582212203015463bbc935978ab965e746523094b43a1f1cd9a2c0c9ddd532eb578e61b4e64736f6c63430008130033",
  "linkReferences": {},
  "deployedLinkReferences": {}
}